{
  "_format": "hh-sol-artifact-1",
  "contractName": "lotteryContract",
  "sourceName": "contracts/lotteryContract.sol",
  "abi": [
    {
      "inputs": [],
      "stateMutability": "nonpayable",
      "type": "constructor"
    },
    {
      "anonymous": false,
      "inputs": [
        {
          "indexed": false,
          "internalType": "address",
          "name": "winner",
          "type": "address"
        },
        {
          "indexed": false,
          "internalType": "uint256",
          "name": "gain",
          "type": "uint256"
        }
      ],
      "name": "drawEnded",
      "type": "event"
    },
    {
      "anonymous": false,
      "inputs": [
        {
          "indexed": false,
          "internalType": "address",
          "name": "player",
          "type": "address"
        },
        {
          "indexed": false,
          "internalType": "uint256",
          "name": "pot",
          "type": "uint256"
        },
        {
          "indexed": false,
          "internalType": "uint256",
          "name": "participants",
          "type": "uint256"
        }
      ],
      "name": "ticketPurchased",
      "type": "event"
    },
    {
      "inputs": [],
      "name": "buyTicket",
      "outputs": [],
      "stateMutability": "payable",
      "type": "function"
    },
    {
      "inputs": [],
      "name": "contractOwner",
      "outputs": [
        {
          "internalType": "address",
          "name": "",
          "type": "address"
        }
      ],
      "stateMutability": "view",
      "type": "function"
    },
    {
      "inputs": [],
      "name": "countParticipants",
      "outputs": [
        {
          "internalType": "uint256",
          "name": "",
          "type": "uint256"
        }
      ],
      "stateMutability": "view",
      "type": "function"
    },
    {
      "inputs": [],
      "name": "currentPot",
      "outputs": [
        {
          "internalType": "uint256",
          "name": "",
          "type": "uint256"
        }
      ],
      "stateMutability": "view",
      "type": "function"
    },
    {
      "inputs": [],
      "name": "drawWinner",
      "outputs": [],
      "stateMutability": "nonpayable",
      "type": "function"
    },
    {
      "inputs": [],
      "name": "hasTicket",
      "outputs": [
        {
          "internalType": "bool",
          "name": "",
          "type": "bool"
        }
      ],
      "stateMutability": "view",
      "type": "function"
    },
    {
      "inputs": [],
      "name": "lastWinner",
      "outputs": [
        {
          "internalType": "address",
          "name": "",
          "type": "address"
        }
      ],
      "stateMutability": "view",
      "type": "function"
    },
    {
      "inputs": [],
      "name": "lastWinnerPot",
      "outputs": [
        {
          "internalType": "uint256",
          "name": "",
          "type": "uint256"
        }
      ],
      "stateMutability": "view",
      "type": "function"
    },
    {
      "inputs": [
        {
          "internalType": "uint256",
          "name": "",
          "type": "uint256"
        },
        {
          "internalType": "address",
          "name": "",
          "type": "address"
        }
      ],
      "name": "registeredPlayers",
      "outputs": [
        {
          "internalType": "bool",
          "name": "",
          "type": "bool"
        }
      ],
      "stateMutability": "view",
      "type": "function"
    }
  ],
  "bytecode": "0x6080604052600160035534801561001557600080fd5b50336000806101000a81548173ffffffffffffffffffffffffffffffffffffffff021916908373ffffffffffffffffffffffffffffffffffffffff160217905550611038806100656000396000f3fe6080604052600436106100865760003560e01c8063ce606ee011610059578063ce606ee014610123578063cfa6662c1461014e578063edca914c14610179578063f7b2402414610183578063fe188184146101c057610086565b8063574479e61461008b5780635c52bba7146100b657806367550263146100e1578063b2185bb11461010c575b600080fd5b34801561009757600080fd5b506100a06101eb565b6040516100ad9190610975565b60405180910390f35b3480156100c257600080fd5b506100cb6101fa565b6040516100d89190610975565b60405180910390f35b3480156100ed57600080fd5b506100f6610207565b60405161010391906109ab565b60405180910390f35b34801561011857600080fd5b5061012161026e565b005b34801561012f57600080fd5b50610138610553565b6040516101459190610a07565b60405180910390f35b34801561015a57600080fd5b50610163610577565b6040516101709190610975565b60405180910390f35b61018161057d565b005b34801561018f57600080fd5b506101aa60048036038101906101a59190610a7f565b61080c565b6040516101b791906109ab565b60405180910390f35b3480156101cc57600080fd5b506101d561083b565b6040516101e29190610a07565b60405180910390f35b60006101f5610861565b905090565b6000600580549050905090565b600060046000600354815260200190815260200160002060003373ffffffffffffffffffffffffffffffffffffffff1673ffffffffffffffffffffffffffffffffffffffff16815260200190815260200160002060009054906101000a900460ff16905090565b3373ffffffffffffffffffffffffffffffffffffffff1660008054906101000a900473ffffffffffffffffffffffffffffffffffffffff1673ffffffffffffffffffffffffffffffffffffffff16146102fc576040517f08c379a00000000000000000000000000000000000000000000000000000000081526004016102f390610b1c565b60405180910390fd5b600060058054905061030c610881565b6103169190610b6b565b90506005818154811061032c5761032b610b9c565b5b9060005260206000200160009054906101000a900473ffffffffffffffffffffffffffffffffffffffff16600160006101000a81548173ffffffffffffffffffffffffffffffffffffffff021916908373ffffffffffffffffffffffffffffffffffffffff16021790555060006103a1610861565b905080600281905550600160009054906101000a900473ffffffffffffffffffffffffffffffffffffffff1673ffffffffffffffffffffffffffffffffffffffff166108fc829081150290604051600060405180830381858888f19350505050158015610412573d6000803e3d6000fd5b5060008054906101000a900473ffffffffffffffffffffffffffffffffffffffff1673ffffffffffffffffffffffffffffffffffffffff166108fc479081150290604051600060405180830381858888f19350505050158015610479573d6000803e3d6000fd5b507f36078a8e2db062be50c6b8b307ef0656a11e39c2c8cb43360505151e5f813b16600160009054906101000a900473ffffffffffffffffffffffffffffffffffffffff16826040516104cd929190610bcb565b60405180910390a16001600360008282546104e89190610c23565b92505081905550600067ffffffffffffffff81111561050a57610509610c79565b5b6040519080825280602002602001820160405280156105385781602001602082028036833780820191505090505b506005908051906020019061054e9291906108b5565b505050565b60008054906101000a900473ffffffffffffffffffffffffffffffffffffffff1681565b60025481565b66470de4df82000034146105c6576040517f08c379a00000000000000000000000000000000000000000000000000000000081526004016105bd90610cf4565b60405180910390fd5b60046000600354815260200190815260200160002060003373ffffffffffffffffffffffffffffffffffffffff1673ffffffffffffffffffffffffffffffffffffffff16815260200190815260200160002060009054906101000a900460ff1615610666576040517f08c379a000000000000000000000000000000000000000000000000000000000815260040161065d90610d60565b60405180910390fd5b60008054906101000a900473ffffffffffffffffffffffffffffffffffffffff1673ffffffffffffffffffffffffffffffffffffffff163373ffffffffffffffffffffffffffffffffffffffff1614156106f5576040517f08c379a00000000000000000000000000000000000000000000000000000000081526004016106ec90610dcc565b60405180910390fd5b600160046000600354815260200190815260200160002060003373ffffffffffffffffffffffffffffffffffffffff1673ffffffffffffffffffffffffffffffffffffffff16815260200190815260200160002060006101000a81548160ff0219169083151502179055506005339080600181540180825580915050600190039060005260206000200160009091909190916101000a81548173ffffffffffffffffffffffffffffffffffffffff021916908373ffffffffffffffffffffffffffffffffffffffff1602179055507f85d3e9c14472d7c819268bcf0278e69840a51696eeec82f8e09c3fc1fa3a2f8b336107ed610861565b60058054905060405161080293929190610dec565b60405180910390a1565b60046020528160005260406000206020528060005260406000206000915091509054906101000a900460ff1681565b600160009054906101000a900473ffffffffffffffffffffffffffffffffffffffff1681565b600060646050476108729190610e23565b61087c9190610e7d565b905090565b6000426005604051602001610897929190610fd2565b6040516020818303038152906040528051906020012060001c905090565b82805482825590600052602060002090810192821561092e579160200282015b8281111561092d5782518260006101000a81548173ffffffffffffffffffffffffffffffffffffffff021916908373ffffffffffffffffffffffffffffffffffffffff160217905550916020019190600101906108d5565b5b50905061093b919061093f565b5090565b5b80821115610958576000816000905550600101610940565b5090565b6000819050919050565b61096f8161095c565b82525050565b600060208201905061098a6000830184610966565b92915050565b60008115159050919050565b6109a581610990565b82525050565b60006020820190506109c0600083018461099c565b92915050565b600073ffffffffffffffffffffffffffffffffffffffff82169050919050565b60006109f1826109c6565b9050919050565b610a01816109e6565b82525050565b6000602082019050610a1c60008301846109f8565b92915050565b600080fd5b610a308161095c565b8114610a3b57600080fd5b50565b600081359050610a4d81610a27565b92915050565b610a5c816109e6565b8114610a6757600080fd5b50565b600081359050610a7981610a53565b92915050565b60008060408385031215610a9657610a95610a22565b5b6000610aa485828601610a3e565b9250506020610ab585828601610a6a565b9150509250929050565b600082825260208201905092915050565b7f4f6e6c79206f776e65722067657420646f207468697300000000000000000000600082015250565b6000610b06601683610abf565b9150610b1182610ad0565b602082019050919050565b60006020820190508181036000830152610b3581610af9565b9050919050565b7f4e487b7100000000000000000000000000000000000000000000000000000000600052601260045260246000fd5b6000610b768261095c565b9150610b818361095c565b925082610b9157610b90610b3c565b5b828206905092915050565b7f4e487b7100000000000000000000000000000000000000000000000000000000600052603260045260246000fd5b6000604082019050610be060008301856109f8565b610bed6020830184610966565b9392505050565b7f4e487b7100000000000000000000000000000000000000000000000000000000600052601160045260246000fd5b6000610c2e8261095c565b9150610c398361095c565b9250827fffffffffffffffffffffffffffffffffffffffffffffffffffffffffffffffff03821115610c6e57610c6d610bf4565b5b828201905092915050565b7f4e487b7100000000000000000000000000000000000000000000000000000000600052604160045260246000fd5b7f5469636b657420636f61737420302e3032204554482021000000000000000000600082015250565b6000610cde601783610abf565b9150610ce982610ca8565b602082019050919050565b60006020820190508181036000830152610d0d81610cd1565b9050919050565b7f596f75206861766520616c6d6f73742061207469636b65742021000000000000600082015250565b6000610d4a601a83610abf565b9150610d5582610d14565b602082019050919050565b60006020820190508181036000830152610d7981610d3d565b9050919050565b7f41646d696e2063616e2774207061727469636970617465000000000000000000600082015250565b6000610db6601783610abf565b9150610dc182610d80565b602082019050919050565b60006020820190508181036000830152610de581610da9565b9050919050565b6000606082019050610e0160008301866109f8565b610e0e6020830185610966565b610e1b6040830184610966565b949350505050565b6000610e2e8261095c565b9150610e398361095c565b9250817fffffffffffffffffffffffffffffffffffffffffffffffffffffffffffffffff0483118215151615610e7257610e71610bf4565b5b828202905092915050565b6000610e888261095c565b9150610e938361095c565b925082610ea357610ea2610b3c565b5b828204905092915050565b600081549050919050565b600082825260208201905092915050565b60008190508160005260206000209050919050565b610ee8816109e6565b82525050565b6000610efa8383610edf565b60208301905092915050565b60008160001c9050919050565b600073ffffffffffffffffffffffffffffffffffffffff82169050919050565b6000610f46610f4183610f06565b610f13565b9050919050565b6000610f598254610f33565b9050919050565b6000600182019050919050565b6000610f7882610eae565b610f828185610eb9565b9350610f8d83610eca565b8060005b83811015610fc557610fa282610f4d565b610fac8882610eee565b9750610fb783610f60565b925050600181019050610f91565b5085935050505092915050565b6000604082019050610fe76000830185610966565b8181036020830152610ff98184610f6d565b9050939250505056fea2646970667358221220728fc3cf97a7e75057ff2a0ef38816e1cf5dcf16b682e0acaa91056a48df8a0364736f6c634300080c0033",
  "linkReferences": {},
  "deployedLinkReferences": {}
}